:020000040000FA
:100000000C9463000C948B000C948B000C948B006C
:100010000C948B000C948B000C948B000C94DC04DF
:100020000C948B000C948B000C948B000C948B0024
:100030000C948B000C948B000C948B000C948B0014
:100040000C94B6050C948B000C9484050C945E05FE
:100050000C948B000C948B000C948B000C948B00F4
:100060000C948B000C948B000000000024002700EF
:100070002A0000000008000201000003040700003D
:1000800000000000000000000000230026002900FE
:10009000010204081020408001020408102001021F
:1000A0000408102000000000250028002B00040494
:1000B0000404040404040202020202020303030310
:1000C00003030200450611241FBECFEFD8E0DEBFB8
:1000D000CDBF11E0A0E0B1E0ECE7F5E102C0059092
:1000E0000D92AE33B107D9F722E0AEE3B1E001C023
:1000F0001D92AD30B207E1F710E0C3E6D0E004C0D6
:100100002197FE010E94B60AC236D107C9F70E94A4
:100110008F060C94BC0A0C940000AF92BF92CF9251
:10012000DF92EF92FF920F931F93CF93DF936C01B7
:100130007B018B01040F151FEB015E01AE18BF0898
:10014000C017D10759F06991D601ED91FC9101904A
:10015000F081E02DC6010995892B79F7C501DF9162
:10016000CF911F910F91FF90EF90DF90CF90BF90B4
:10017000AF900895FC01538D448D252F30E0842FDE
:1001800090E0821B930B541710F0CF9608950197BF
:100190000895FC01918D828D981761F0A28DAE0FAC
:1001A000BF2FB11D5D968C91928D9F5F9F73928F33
:1001B00090E008958FEF9FEF0895FC01918D828D5F
:1001C000981731F0828DE80FF11D858D90E008952C
:1001D0008FEF9FEF0895FC01918D228D892F90E084
:1001E000805C9F4F821B91098F739927089588E542
:1001F00091E00E94EB0021E0892B09F420E0822F9E
:10020000089580E090E0892B29F00E94F700811189
:100210000C9400000895FC01A48DA80FB92FB11D06
:10022000A35ABF4F2C91848D90E001968F7399272C
:10023000848FA689B7892C93A089B1898C9183700A
:1002400080648C93938D848D981306C00288F38903
:10025000E02D80818F7D80830895EF92FF920F9330
:100260001F93CF93DF93EC0181E0888F9B8D8C8D62
:1002700098131AC0E889F989808185FF15C09FB756
:10028000F894EE89FF896083E889F9898081837019
:10029000806480839FBF81E090E0DF91CF911F91C8
:1002A0000F91FF90EF900895F62E0B8D10E00F5FE9
:1002B0001F4F0F731127E02E8C8D8E110CC00FB6BF
:1002C00007FCFACFE889F989808185FFF5CFCE0157
:1002D0000E940B01F1CFEB8DEC0FFD2FF11DE35AC6
:1002E000FF4FF0829FB7F8940B8FEA89FB898081DA
:1002F0008062CFCFCF93DF93EC01888D8823B9F054
:10030000AA89BB89E889F9898C9185FD03C0808120
:1003100086FD0DC00FB607FCF7CF8C9185FFF2CF9D
:10032000808185FFEDCFCE010E940B01E9CFDF91E7
:10033000CF91089590E0FC01EE58FF4F2491FC010D
:10034000E057FF4F3491FC01E255FF4FE491EE235B
:10035000C9F0222339F0233001F1A8F4213019F13A
:10036000223029F1F0E0EE0FFF1FEC55FF4FA59171
:10037000B4918FB7F894EC91611126C030953E236B
:100380003C938FBF08952730A9F02830C9F024305E
:1003900049F7809180008F7D03C0809180008F7726
:1003A00080938000DFCF84B58F7784BDDBCF84B5A9
:1003B0008F7DFBCF8091B0008F778093B000D2CF3C
:1003C0008091B0008F7DF9CF3E2BDACFCF93DF93B2
:1003D00090E0FC01E057FF4F249182559F4FFC01B4
:1003E00084918823D1F090E0880F991FFC01E8598F
:1003F000FF4FA591B491FC01EC55FF4FC591D491ED
:1004000061110EC09FB7F8948C91E22FE0958E2376
:100410008C932881E223E8839FBFDF91CF910895D9
:100420008FB7F894EC91E22BEC938FBFF6CFCF927D
:10043000DF92EF92FF920F931F93CF938C018091E5
:100440000001893059F08F3F09F44BC0CF911F91C3
:100450000F91FF90EF90DF90CF900895E2ECF0E0E5
:10046000C491C7FDF3CF61E089E00E94E601C111AC
:100470004EC0980150E040E068E478EE81E090E002
:100480000E94880A69017A0181E0C81AD108E1084E
:10049000F10885B5887F836085BD9801220F331FE1
:1004A000A8ECB0E00E94A70A28EE33E040E050E05C
:1004B0000E94660AC13009F4B4C0C23009F4C3C056
:1004C000C111C4CFC7BC2093540130935501409350
:1004D00056015093570180916E00826080936E00A8
:1004E000B5CF89E080930001E2ECF0E0C491CF3F0A
:1004F00009F4ACCFC13009F43DC018F1C23009F4A1
:1005000057C0C7FDA3CF61E089E00E94E6019801D2
:1005100050E040E0C23009F06DC060E970ED83E06A
:1005200090E00E94880A69017A0181E0C81AD10826
:10053000E108F1088091B100887F83608093B10069
:10054000ACCF14BC15BC84B5826084BD85B5816018
:1005500085BDE7EBF0E0E491F0E0EE0FFF1FEC5516
:10056000FF4F85919491E9E9F0E0E491E0934B012C
:10057000C0E079CF109280001092810080918100BC
:1005800088608093810080918100816080938100E8
:10059000E7EBF0E0E491F0E0EE0FFF1FEC55FF4FCA
:1005A00085919491E9E9F0E0E491E0934A015BCF11
:1005B0001092B0001092B1008091B00082608093E0
:1005C000B0008091B10081608093B100E7EBF0E072
:1005D000E491F0E0EE0FFF1FEC55FF4F85919491F1
:1005E0009093490180934801E9E9F0E0E491E093B8
:1005F000470139CF60E072E18AE790E00E94880A03
:1006000069017A0181E0C81AD108E108F108C13016
:1006100009F043CF80918100887F816080938100C1
:100620003CCFD0928900C092880020935001309333
:100630005101409352015093530180916F008260A9
:1006400080936F0003CFC092B30020934C0130938E
:100650004D0140934E0150934F0180917000826094
:1006600080937000F3CE089590E080E0089560E0FC
:1006700082E00E949A0160E083E00E949A0160E0BB
:1006800084E00C949A01FC0101900020E9F7319775
:10069000AF01481B590BBC0185EF91E00C948D0014
:1006A0008F929F92AF92BF920F931F93CF93DF933E
:1006B000CDB7DEB7A1970FB6F894DEBF0FBECDBFA2
:1006C00019A2423008F44AE08E010F5D1F4F842EBC
:1006D000912CB12CA12CA50194010E94660AE62F51
:1006E000B901CA01EA30F4F4E05DD801EE938D015E
:1006F000232B242B252B79F790E080E0109719F01D
:10070000CD010E944303A1960FB6F894DEBF0FBE41
:10071000CDBFDF91CF911F910F91BF90AF909F9070
:100720008F900895E95CE1CFCF93DF93EC0160E017
:100730008E810E949A0161E08E810E949A0160E0A0
:100740008E810E949A018BE891E00197F1F7DF9189
:10075000CF910895CF92DF92EF92FF920F931F9364
:10076000CF93DF936C017C0187E0E80EF11CD0E0B1
:10077000C0E0062F10E0B8010C2E02C075956795F9
:100780000A94E2F76170F70181917F010E949A015A
:100790002196C430D10579F7C601DF91CF911F9121
:1007A0000F91FF90EF90DF90CF900C949403CF9235
:1007B000DF92EF92FF920F931F93CF93DF93EC01A1
:1007C000F62E642F8C810E949A018D818F3F19F043
:1007D00060E00E949A010F2D10E08F8584FF25C0F4
:1007E0006E0187E0C80ED11CF12CE12CB8010E2C53
:1007F00002C0759567950A94E2F76170F6018191E0
:100800006F010E949A01FFEFEF1AFF0A88E0E816D5
:10081000F10461F7CE01DF91CF911F910F91FF900D
:10082000EF90DF90CF900C949403B80184E075951D
:1008300067958A95E1F7CE010E94AA036F2DCE013C
:10084000DF91CF911F910F91FF90EF90DF90CF90AC
:100850000C94AA0340E0682F85EF91E00C94D70335
:10086000CF93DF93823029F49091040298609093A3
:100870000402809308021092090280E480930A0225
:1008800080E180930B0280E580930C0261E080910F
:10089000F9010E94E6018091FA018F3F19F061E0B1
:1008A0000E94E60161E08091FB010E94E601C5EF34
:1008B000D1E09E01255F31408091040284FD0BC090
:1008C00084E090E021962817390744F461E08E8196
:1008D0000E94E601EECF88E090E0F4CF8BE39DE04C
:1008E0000197F1F760E08091F9010E949A0160E0C0
:1008F0008091FB010E949A018091FA018F3F19F0CB
:1009000060E00E949A018091040284FD39C063E096
:1009100085EF91E00E94AA03CBE4D6E4CE010197D3
:10092000F1F763E085EF91E00E94AA032197F1F7C8
:1009300063E085EF91E00E94AA0383E592E00197CE
:10094000F1F762E085EF91E00E94AA038091040232
:1009500080620E942A0484E0809305028CE00E9459
:100960002A0481E00E942A048BE39FE10197F1F7BA
:1009700082E08093060286E0DF91CF910C942A04F6
:1009800080620E942A048BE496E40197F1F780913B
:10099000040280620E942A0483E592E00197F1F745
:1009A0008091040280620E942A04D0CF41E00E941C
:1009B000D70381E090E008951F920F920FB60F9237
:1009C00011242F933F934F935F936F937F938F9354
:1009D0009F93AF93BF93EF93FF9380914C019091BE
:1009E0004D01A0914E01B0914F01892B8A2B8B2B89
:1009F000D1F190914701E0914801F0914901808146
:100A00008927808380914C0190914D01A0914E01E6
:100A1000B0914F01181619061A061B069CF4809116
:100A20004C0190914D01A0914E01B0914F01019761
:100A3000A109B10980934C0190934D01A0934E01FF
:100A4000B0934F01FF91EF91BF91AF919F918F9123
:100A50007F916F915F914F913F912F910F900FBEBA
:100A60000F901F90189580910001E2ECF0E0E49166
:100A70009FEF90930001E13051F030F0E23069F0E7
:100A800060E00E949A01DECF10926E00F9CF909143
:100A90006F009D7F90936F00F3CF909170009D7FCA
:100AA0009093700091E09093B0009091B100987F86
:100AB00094609093B1001092B300E2CF1F920F9216
:100AC0000FB60F9211242F933F934F935F936F9321
:100AD0007F938F939F93AF93BF93EF93FF9388E59B
:100AE00091E00E940B01FF91EF91BF91AF919F9117
:100AF0008F917F916F915F914F913F912F910F90C7
:100B00000FBE0F901F9018951F920F920FB60F9265
:100B100011242F938F939F93EF93FF93E09168019C
:100B2000F09169018081E0916E01F0916F0182FD89
:100B30001BC09081809171018F5F8F732091720132
:100B4000821741F0E0917101F0E0E85AFE4F958F75
:100B500080937101FF91EF919F918F912F910F9051
:100B60000FBE0F901F9018958081F4CF1F920F92A7
:100B70000FB60F9211242F933F938F939F93AF93B0
:100B8000BF938091430190914401A0914501B091A0
:100B900046013091420123E0230F2D3758F501968D
:100BA000A11DB11D20934201809343019093440104
:100BB000A0934501B093460180913E0190913F0181
:100BC000A0914001B09141010196A11DB11D8093FA
:100BD0003E0190933F01A0934001B0934101BF912A
:100BE000AF919F918F913F912F910F900FBE0F90DA
:100BF0001F90189526E8230F0296A11DB11DD2CF94
:100C0000CF92DF92EF92FF920F931F93E82FF92F6D
:100C100005C0015011092109310961F19081962324
:100C20009417B9F305C0015011092109310911F1D7
:100C3000908196239413F7CFC12CD12CE12CF12C69
:100C40000AC08FEFC81AD80AE80AF80A0C151D0561
:100C50002E053F0579F080818623841791F36C2D52
:100C60007D2D8E2D9F2D1F910F91FF90EF90DF9086
:100C7000CF90089560E070E080E090E01F910F91C8
:100C8000FF90EF90DF90CF900895E8E5F1E01382B8
:100C9000128288EE93E0A0E0B0E084839583A6837F
:100CA000B78385E091E09183808385EC90E0958720
:100CB000848784EC90E09787868780EC90E0918B26
:100CC000808B81EC90E0938B828B82EC90E0958B13
:100CD000848B86EC90E0978B868B118E128E138E10
:100CE000148EE5EFF1E01382128287E191E09183A7
:100CF000808387E084838FEF858388E086838AE022
:100D000087838BE080878CE081878DE082871386E4
:100D1000148615861686178681E00C943004789424
:100D200084B5826084BD84B5816084BD85B58260F0
:100D300085BD85B5816085BD80916E0081608093A1
:100D40006E0010928100809181008260809381000A
:100D5000809181008160809381008091800081601A
:100D6000809380008091B10084608093B100809175
:100D7000B00081608093B00080917A00846080939D
:100D80007A0080917A00826080937A0080917A0064
:100D9000816080937A0080917A00806880937A00E5
:100DA0001092C10082E00E943004E0916801F0914D
:100DB000690182E08083E0916401F0916501108215
:100DC000E0916601F09167018FEC808310927001D1
:100DD000E0916C01F0916D0186E08083E0916A0101
:100DE000F0916B01808180618083E0916A01F091D4
:100DF0006B01808188608083E0916A01F0916B01D2
:100E0000808180688083E0916A01F0916B0180812C
:100E10008F7D808361E082E00E94E60161E083E0F3
:100E20000E94E60161E084E00E94E60160E086E065
:100E30000E94E60161E085E00E94E60161E089E050
:100E40000E94E6010E94370393E2292E312CC0E074
:100E5000D0E0E1E0809108028111E0E0E195F0E06E
:100E6000EB50FE4F848980680E942A0460E085E090
:100E70000E949A0183E090E00197F1F761E085E03C
:100E80000E949A01C1010197F1F760E085E00E949C
:100E90009A01E6E9F0E06491E4EBF0E08491E82F58
:100EA000F0E0EE0FFF1FEA57FF4F8591949100E4A9
:100EB00012E42FE030E0462F0E9400066115710514
:100EC0008105910529F06F5F7F4F8F4F9F4F9F7076
:100ED0000E943D092DEB37E346E855E30E94F409F3
:100EE00020E03CEF45E057E40E94F40920E030E0C8
:100EF00040E05FE30E94F4096B017C01E1E0809136
:100F000008028111E0E0E195F0E0EB50FE4F8489AA
:100F100080680E942A048FE191E00E944303E091DF
:100F20000802E23008F045C0E150F0E0EB50FE4F1F
:100F3000848980680E942A04A7019601C701B6012E
:100F40000E94610A8823B9F18CE291E00E94430378
:100F500088E391E00E9443038BE391E00E94430306
:100F60000E94370320E030E046E153E4C701B601B8
:100F70000E94090987FF12C020E030E040EA52E4F5
:100F8000C701B6010E94EF0987FDA9C061E082E0B8
:100F90000E949A0180ED97E00E941702209709F4C1
:100FA00058CF0E94F700882309F453CF0E94000015
:100FB00050CFE1E0BACF46015701E894B7F82FEFE0
:100FC0003FEF4FE75FE7C501B4010E94610A81115D
:100FD0000DC02FEF3FEF4FE75FE7C501B4010E945F
:100FE000090918161CF480E391E0B0CF2FEF3FEF12
:100FF0004FE75FE4C701B6010E94EF0918161CF421
:1010000084E391E0A3CF2FEF3FEF4FE75FECC70101
:10101000B6010E94090987FDF3CF20E030E0A90165
:10102000C701B6010E94090987FF56C041E06DE281
:1010300085EF91E00E94D703C701B60190582AE0DE
:1010400037ED43EA5BE30E949D082B013C010E94BF
:101050000E094B015C010E943D099B01AC01C301DB
:10106000B2010E949C082B013C014AE0C501B40179
:101070000E94500341E06EE285EF91E00E94D703A9
:1010800020E030E040E251E4C301B2010E94F409E3
:101090002B013C010E940E094B01B12CA12C4AE00E
:1010A000C501B4010E945003C501B4010E943D096D
:1010B0009B01AC01C301B2010E949C0820E030E01A
:1010C00040E251E40E94F4090E940E0990E080E0A1
:1010D0004AE00E9450033CCFC701B601B0CF20E0E8
:1010E00030E040EA52E4C701B6010E94090987FFD7
:1010F00011C020E030E048E452E4C701B6010E948C
:10110000EF0918163CF461E083E00E949A0184EC38
:1011100099E042CF20E030E048E452E4C701B60154
:101120000E94090918160CF439CF61E084E00E948E
:101130009A0188EB9BE030CF5058BB27AA270E942A
:10114000B4080C94B5090E94A70938F00E94AE09B2
:1011500020F039F49F3F19F426F40C94A4090EF4FE
:10116000E095E7FB0C949E09E92F0E94C60958F30D
:10117000BA17620773078407950720F079F4A6F57C
:101180000C94E8090EF4E0950B2EBA2FA02D0B015C
:10119000B90190010C01CA01A0011124FF27591BBC
:1011A00099F0593F50F4503E68F11A16F040A22FC2
:1011B000232F342F4427585FF3CF46953795279533
:1011C000A795F0405395C9F77EF41F16BA0B620B32
:1011D000730B840BBAF09150A1F0FF0FBB1F661F79
:1011E000771F881FC2F70EC0BA0F621F731F841FBC
:1011F00048F4879577956795B795F7959E3F08F0E2
:10120000B0CF9395880F08F09927EE0F97958795A3
:1012100008950E947A0908F481E008950E94CE0999
:1012200088F09F5798F0B92F9927B751B0F0E1F0A7
:10123000660F771F881F991F1AF0BA95C9F714C057
:10124000B13091F00E94E809B1E008950C94E809EA
:10125000672F782F8827B85F39F0B93FCCF3869590
:1012600077956795B395D9F73EF4909580957095ED
:1012700061957F4F8F4F9F4F0895E89409C097FB6A
:101280003EF490958095709561957F4F8F4F9F4F5D
:101290009923A9F0F92F96E9BB279395F6958795A1
:1012A00077956795B795F111F8CFFAF4BB0F11F464
:1012B00060FF1BC06F5F7F4F8F4F9F4F16C088230B
:1012C00011F096E911C0772321F09EE8872F762F41
:1012D00005C0662371F096E8862F70E060E02AF082
:1012E0009A95660F771F881FDAF7880F969587956E
:1012F00097F90895990F0008550FAA0BE0E8FEEF43
:1013000016161706E807F907C0F012161306E407C9
:10131000F50798F0621B730B840B950B39F40A26C2
:1013200061F0232B242B252B21F408950A2609F4A0
:10133000A140A6958FEF811D811D089597F99F67A4
:1013400080E870E060E008959FEF80EC089500244D
:101350000A941616170618060906089500240A941A
:1013600012161306140605060895092E0394000CA0
:1013700011F4882352F0BB0F40F4BF2B11F460FF2F
:1013800004C06F5F7F4F8F4F9F4F089557FD905858
:10139000440F551F59F05F3F71F04795880F97FB39
:1013A000991F61F09F3F79F08795089512161306F3
:1013B0001406551FF2CF4695F1DF08C01616170622
:1013C0001806991FF1CF8695710561050894089557
:1013D000E894BB2766277727CB0197F908950E94E9
:1013E0007A0908F48FEF08950E94070A0C94B50952
:1013F0000E94A70938F00E94AE0920F0952311F051
:101400000C949E090C94A40911240C94E9090E94DF
:10141000C60970F3959FC1F3950F50E0551F629F69
:10142000F001729FBB27F00DB11D639FAA27F00D3D
:10143000B11DAA1F649F6627B00DA11D661F829F64
:101440002227B00DA11D621F739FB00DA11D621F49
:10145000839FA00D611D221F749F3327A00D611D66
:10146000231F849F600D211D822F762F6A2F112448
:101470009F5750409AF0F1F088234AF0EE0FFF1F7B
:10148000BB1F661F771F881F91505040A9F79E3FD2
:10149000510580F00C949E090C94E9095F3FE4F338
:1014A000983ED4F3869577956795B795F795E79528
:1014B0009F5FC1F7FE2B880F911D9695879597F931
:1014C00008950E947A09880B990B0895A1E21A2EBB
:1014D000AA1BBB1BFD010DC0AA1FBB1FEE1FFF1FD8
:1014E000A217B307E407F50720F0A21BB30BE40B28
:1014F000F50B661F771F881F991F1A9469F760956F
:101500007095809590959B01AC01BD01CF01089528
:10151000052E97FB1EF400940E949F0A57FD07D0EA
:101520000E94660A07FC03D04EF40C949F0A509563
:101530004095309521953F4F4F4F5F4F08959095BF
:101540008095709561957F4F8F4F9F4F0895A29F13
:10155000B001B39FC001A39F700D811D1124911D87
:10156000B29F700D811D1124911D0895EE0FFF1F74
:101570000590F491E02D0994F894FFCFFF0000004E
:10158000002D018D00BA007A01EB00C900DD0000DA
:10159000000000D6048D00340333036F627374615E
:1015A00063756C6F20613A006E616E00696E660053
:0A15B0006F766600636D000D0A00FF
:107E0000112484B714BE81FFF0D085E080938100F7
:107E100082E08093C00088E18093C10086E0809377
:107E2000C20080E18093C4008EE0C9D0259A86E02C
:107E300020E33CEF91E0309385002093840096BBD3
:107E4000B09BFECF1D9AA8958150A9F7CC24DD24C4
:107E500088248394B5E0AB2EA1E19A2EF3E0BF2EE7
:107E6000A2D0813461F49FD0082FAFD0023811F036
:107E7000013811F484E001C083E08DD089C08234E0
:107E800011F484E103C0853419F485E0A6D080C0E4
:107E9000853579F488D0E82EFF2485D0082F10E0AE
:107EA000102F00270E291F29000F111F8ED06801E7
:107EB0006FC0863521F484E090D080E0DECF843638
:107EC00009F040C070D06FD0082F6DD080E0C81688
:107ED00080E7D80618F4F601B7BEE895C0E0D1E017
:107EE00062D089930C17E1F7F0E0CF16F0E7DF06D8
:107EF00018F0F601B7BEE89568D007B600FCFDCFD4
:107F0000A601A0E0B1E02C9130E011968C91119780
:107F100090E0982F8827822B932B1296FA010C0160
:107F200087BEE89511244E5F5F4FF1E0A038BF0790
:107F300051F7F601A7BEE89507B600FCFDCF97BE46
:107F4000E89526C08437B1F42ED02DD0F82E2BD052
:107F50003CD0F601EF2C8F010F5F1F4F84911BD097
:107F6000EA94F801C1F70894C11CD11CFA94CF0C13
:107F7000D11C0EC0853739F428D08EE10CD085E9AC
:107F80000AD08FE07ACF813511F488E018D01DD067
:107F900080E101D065CF982F8091C00085FFFCCF94
:107FA0009093C60008958091C00087FFFCCF809118
:107FB000C00084FD01C0A8958091C6000895E0E648
:107FC000F0E098E1908380830895EDDF803219F02E
:107FD00088E0F5DFFFCF84E1DECF1F93182FE3DFCA
:107FE0001150E9F7F2DF1F91089580E0E8DFEE27F6
:047FF000FF270994CA
:027FFE00040479
:00000001FF
