:100000000C9463000C948B000C948B000C948B006C
:100010000C948B000C948B000C948B000C94FC03C0
:100020000C948B000C948B000C948B000C948B0024
:100030000C948B000C948B000C948B000C948B0014
:100040000C947E040C948B000C948B000C948B000D
:100050000C948B000C948B000C948B000C948B00F4
:100060000C948B000C948B000000000024002700EF
:100070002A0000000008000201000003040700003D
:1000800000000000000000000000230026002900FE
:10009000010204081020408001020408102001021F
:1000A0000408102000000000250028002B00040494
:1000B0000404040404040202020202020303030310
:1000C00003030200E00611241FBECFEFD8E0DEBF1D
:1000D000CDBF11E0A0E0B1E0E0E4F2E102C00590A4
:1000E0000D92AC32B107D9F721E0ACE2B1E001C02A
:1000F0001D92AE35B207E1F710E0C3E6D0E004C0D0
:100100002197FE010E941809C236D107C9F70E9443
:100110000D050C941E090C940000AF92BF92CF9273
:10012000DF92EF92FF920F931F93CF93DF936C01B7
:100130007B018B01040F151FEB015E01AE18BF0898
:10014000C017D10759F06991D601ED91FC9101904A
:10015000F081E02DC6010995892B79F7C501DF9162
:10016000CF911F910F91FF90EF90DF90CF90BF90B4
:10017000AF90089590E0FC01EE58FF4F2491FC01F0
:10018000E057FF4F3491FC01E255FF4FE491EE231D
:10019000C9F0222339F0233001F1A8F4213019F1FC
:1001A000223029F1F0E0EE0FFF1FEC55FF4FA59133
:1001B000B4918FB7F894EC91611126C030953E232D
:1001C0003C938FBF08952730A9F02830C9F0243020
:1001D00049F7809180008F7D03C0809180008F77E8
:1001E00080938000DFCF84B58F7784BDDBCF84B56B
:1001F0008F7DFBCF8091B0008F778093B000D2CFFE
:100200008091B0008F7DF9CF3E2BDACFCF93DF9373
:1002100090E0FC01E057FF4F249182559F4FFC0175
:1002200084918823D1F090E0880F991FFC01E85950
:10023000FF4FA591B491FC01EC55FF4FC591D491AE
:1002400061110EC09FB7F8948C91E22FE0958E2338
:100250008C932881E223E8839FBFDF91CF9108959B
:100260008FB7F894EC91E22BEC938FBFF6CFCF923F
:10027000DF92EF92FF920F931F93CF938C018091A7
:100280000001893059F08F3F09F44BC0CF911F9185
:100290000F91FF90EF90DF90CF900895E2ECF0E0A7
:1002A000C491C7FDF3CF61E089E00E940601C1114E
:1002B0004EC0980150E040E068E478EE81E090E0C4
:1002C0000E94EA0869017A0181E0C81AD108E108B0
:1002D000F10885B5887F836085BD9801220F331FA3
:1002E000A8ECB0E00E94090928EE33E040E050E0BD
:1002F0000E94C808C13009F4B4C0C23009F4C3C0B8
:10030000C111C4CFC7BC2093420130934301409335
:1003100044015093450180916E00826080936E008D
:10032000B5CF89E080930001E2ECF0E0C491CF3FCB
:1003300009F4ACCFC13009F43DC018F1C23009F462
:1003400057C0C7FDA3CF61E089E00E940601980174
:1003500050E040E0C23009F06DC060E970ED83E02C
:1003600090E00E94EA0869017A0181E0C81AD10888
:10037000E108F1088091B100887F83608093B1002B
:10038000ACCF14BC15BC84B5826084BD85B58160DA
:1003900085BDE7EBF0E0E491F0E0EE0FFF1FEC55D8
:1003A000FF4F85919491E9E9F0E0E491E093390100
:1003B000C0E079CF1092800010928100809181007E
:1003C00088608093810080918100816080938100AA
:1003D000E7EBF0E0E491F0E0EE0FFF1FEC55FF4F8C
:1003E00085919491E9E9F0E0E491E09338015BCFE5
:1003F0001092B0001092B1008091B00082608093A2
:10040000B0008091B10081608093B100E7EBF0E033
:10041000E491F0E0EE0FFF1FEC55FF4F85919491B2
:100420009093370180933601E9E9F0E0E491E0939D
:10043000350139CF60E072E18AE790E00E94EA0876
:1004400069017A0181E0C81AD108E108F108C130D8
:1004500009F043CF80918100887F81608093810083
:100460003CCFD0928900C092880020933E01309307
:100470003F01409340015093410180916F008260A1
:1004800080936F0003CFC092B30020933A01309362
:100490003B0140933C0150933D018091700082608C
:1004A00080937000F3CE089590E080E0089560E0BE
:1004B00082E00E94BA0060E083E00E94BA0060E03F
:1004C00084E00C94BA00FC0101900020E9F7319718
:1004D000AF01481B590BBC0186E491E00C948D00E0
:1004E0008F929F92AF92BF920F931F93CF93DF9300
:1004F000CDB7DEB7A1970FB6F894DEBF0FBECDBF64
:1005000019A2423008F44AE08E010F5D1F4F842E7D
:10051000912CB12CA12CA50194010E94C808E62FB2
:10052000B901CA01EA30F4F4E05DD801EE938D011F
:10053000232B242B252B79F790E080E0109719F0DE
:10054000CD010E946302A1960FB6F894DEBF0FBEE4
:10055000CDBFDF91CF911F910F91BF90AF909F9032
:100560008F900895E95CE1CFCF93DF93EC0160E0D9
:100570008E810E94BA0061E08E810E94BA0060E024
:100580008E810E94BA008BE891E00197F1F7DF912C
:10059000CF910895CF92DF92EF92FF920F931F9326
:1005A000CF93DF936C017C0187E0E80EF11CD0E073
:1005B000C0E0062F10E0B8010C2E02C075956795BB
:1005C0000A94E2F76170F70181917F010E94BA00FD
:1005D0002196C430D10579F7C601DF91CF911F91E3
:1005E0000F91FF90EF90DF90CF900C94B402CF92D8
:1005F000DF92EF92FF920F931F93CF93DF93EC0163
:10060000F62E642F8C810E94BA008D818F3F19F0E5
:1006100060E00E94BA000F2D10E08F8584FF25C096
:100620006E0187E0C80ED11CF12CE12CB8010E2C14
:1006300002C0759567950A94E2F76170F6018191A1
:100640006F010E94BA00FFEFEF1AFF0A88E0E81678
:10065000F10461F7CE01DF91CF911F910F91FF90CF
:10066000EF90DF90CF900C94B402B80184E07595C0
:1006700067958A95E1F7CE010E94CA026F2DCE01DF
:10068000DF91CF911F910F91FF90EF90DF90CF906E
:100690000C94CA0240E0682F86E491E00C94F702C3
:1006A000CF93DF93823029F4909155019860909315
:1006B00055018093590110925A0180E480935B01A7
:1006C00080E180935C0180E580935D0161E0809131
:1006D0004A010E94060180914B018F3F19F061E0B1
:1006E0000E94060161E080914C010E940601C6E46F
:1006F000D1E09E01265431408091550184FD0BC00C
:1007000084E090E021962817390744F461E08E8157
:100710000E940601EECF88E090E0F4CF8BE39DE0ED
:100720000197F1F760E080914A010E94BA0060E011
:1007300080914C010E94BA0080914B018F3F19F0CB
:1007400060E00E94BA008091550184FD39C063E0E9
:1007500086E491E00E94CA02CBE4D6E4CE01019780
:10076000F1F763E086E491E00E94CA022197F1F775
:1007700063E086E491E00E94CA0283E592E001977B
:10078000F1F762E086E491E00E94CA02809155018F
:1007900080620E944A0384E0809356018CE00E94AC
:1007A0004A0381E00E944A038BE39FE10197F1F73E
:1007B00082E08093570186E0DF91CF910C944A0349
:1007C00080620E944A038BE496E40197F1F78091DE
:1007D000550180620E944A0383E592E00197F1F798
:1007E0008091550180620E944A03D0CF41E00E946F
:1007F000F70281E090E008951F920F920FB60F92DA
:1008000011242F933F934F935F936F937F938F9315
:100810009F93AF93BF93EF93FF9380913A01909191
:100820003B01A0913C01B0913D01892B8A2B8B2B80
:10083000D1F190913501E0913601F091370180813D
:100840008927808380913A0190913B01A0913C01DE
:10085000B0913D01181619061A061B069CF48091EA
:100860003A0190913B01A0913C01B0913D0101976B
:10087000A109B10980933A0190933B01A0933C01F7
:10088000B0933D01FF91EF91BF91AF919F918F91F7
:100890007F916F915F914F913F912F910F900FBE7C
:1008A0000F901F90189580910001E2ECF0E0E49128
:1008B0009FEF90930001E13051F030F0E23069F0A9
:1008C00060E00E94BA00DECF10926E00F9CF9091E6
:1008D0006F009D7F90936F00F3CF909170009D7F8C
:1008E0009093700091E09093B0009091B100987F48
:1008F00094609093B1001092B300E2CF1F920F92D8
:100900000FB60F9211242F933F938F939F93AF9322
:10091000BF938091310190913201A0913301B09148
:1009200034013091300123E0230F2D3758F5019623
:10093000A11DB11D209330018093310190933201AC
:10094000A0933301B093340180912C0190912D013B
:10095000A0912E01B0912F010196A11DB11D809390
:100960002C0190932D01A0932E01B0932F01BF91E4
:10097000AF919F918F913F912F910F900FBE0F904C
:100980001F90189526E8230F0296A11DB11DD2CF06
:10099000CF92DF92EF92FF920F931F93E82FF92FE0
:1009A00005C0015011092109310961F19081962397
:1009B0009417B9F305C0015011092109310911F14A
:1009C000908196239413F7CFC12CD12CE12CF12CDC
:1009D0000AC08FEFC81AD80AE80AF80A0C151D05D4
:1009E0002E053F0579F080818623841791F36C2DC5
:1009F0007D2D8E2D9F2D1F910F91FF90EF90DF90F9
:100A0000CF90089560E070E080E090E01F910F913A
:100A1000FF90EF90DF90CF900895789484B5826036
:100A200084BD84B5816084BD85B5826085BD85B592
:100A3000816085BD80916E00816080936E00109210
:100A4000810080918100826080938100809181008B
:100A5000816080938100809180008160809380001C
:100A60008091B10084608093B1008091B00081607A
:100A70008093B00080917A00846080937A008091A6
:100A80007A00826080937A0080917A0081608093FE
:100A90007A0080917A00806880937A001092C10079
:100AA00082E00E94500361E082E00E94060161E062
:100AB00083E00E94060161E084E00E94060160E09C
:100AC00086E00E94060161E085E00E94060161E087
:100AD00089E00E9406010E94570293E2292E312CE0
:100AE000C0E0D0E0E1E0809159018111E0E0E195C2
:100AF000F0E0EA5BFE4F848980680E944A0360E070
:100B000085E00E94BA0083E090E00197F1F761E090
:100B100085E00E94BA00C1010197F1F760E085E02D
:100B20000E94BA00E6E9F0E06491E4EBF0E0849121
:100B3000E82FF0E0EE0FFF1FEA57FF4F85919491E9
:100B400000E412E42FE030E0462F0E94C804611553
:100B500071058105910529F06F5F7F4F8F4F9F4F82
:100B60009F700E949F072DEB37E346E855E30E94F4
:100B7000560820E03CEF45E057E40E94560820E08C
:100B800030E040E05FE30E9456086B017C01E1E049
:100B9000809159018111E0E0E195F0E0EA5BFE4FC0
:100BA000848980680E944A038DE091E00E9463027C
:100BB000E0915901E23008F040C0E150F0E0EA5B1A
:100BC000FE4F848980680E944A03A7019601C701ED
:100BD000B6010E94C308882391F18AE191E00E9446
:100BE000630286E291E00E94630289E291E00E9442
:100BF00063020E94570220E030E046E153E4C7015F
:100C0000B6010E946B0787FF12C020E030E040EA87
:100C100052E4C701B6010E94510887FDA4C061E0FB
:100C200082E00E94BA0080ED97E00E943701209791
:100C300009F458CF0E94000055CFE1E0BFCF460134
:100C40005701E894B7F82FEF3FEF4FE75FE7C50193
:100C5000B4010E94C30881110DC02FEF3FEF4FE791
:100C60005FE7C501B4010E946B0718161CF48EE102
:100C700091E0B5CF2FEF3FEF4FE75FE4C701B6013B
:100C80000E94510818161CF482E291E0A8CF2FEFC1
:100C90003FEF4FE75FECC701B6010E946B0787FD8E
:100CA000F3CF20E030E0A901C701B6010E946B0735
:100CB00087FF56C041E06DE286E491E00E94F702B2
:100CC000C701B60190582AE037ED43EA5BE30E9482
:100CD000FF062B013C010E9470074B015C010E9442
:100CE0009F079B01AC01C301B2010E94FE062B01CC
:100CF0003C014AE0C501B4010E94700241E06EE28D
:100D000086E491E00E94F70220E030E040E251E406
:100D1000C301B2010E9456082B013C010E947007DA
:100D20004B01B12CA12C4AE0C501B4010E94700214
:100D3000C501B4010E949F079B01AC01C301B20130
:100D40000E94FE0620E030E040E251E40E94560896
:100D50000E94700790E080E04AE00E94700241CF5C
:100D6000C701B601B0CF20E030E040EA52E4C7014D
:100D7000B6010E946B0787FF11C020E030E048E415
:100D800052E4C701B6010E94510818163CF461E014
:100D900083E00E94BA0084EC99E047CF20E030E085
:100DA00048E452E4C701B6010E946B0718160CF420
:100DB0003ECF61E084E00E94BA0088EB9BE035CF33
:100DC000E6E4F1E01382128285E091E09183808372
:100DD00087E084838FEF858388E086838AE087833A
:100DE0008BE080878CE081878DE082871386148674
:100DF00015861686178681E00C9450035058BB2741
:100E0000AA270E9416070C9417080E94090838F0B8
:100E10000E94100820F039F49F3F19F426F40C9436
:100E200006080EF4E095E7FB0C940008E92F0E94F9
:100E3000280858F3BA17620773078407950720F04C
:100E400079F4A6F50C944A080EF4E0950B2EBA2F0F
:100E5000A02D0B01B90190010C01CA01A0011124C0
:100E6000FF27591B99F0593F50F4503E68F11A166C
:100E7000F040A22F232F342F4427585FF3CF4695FD
:100E800037952795A795F0405395C9F77EF41F161F
:100E9000BA0B620B730B840BBAF09150A1F0FF0FE9
:100EA000BB1F661F771F881FC2F70EC0BA0F621FD5
:100EB000731F841F48F4879577956795B795F795C5
:100EC0009E3F08F0B0CF9395880F08F09927EE0F5A
:100ED0009795879508950E94DC0708F481E00895AE
:100EE0000E94300888F09F5798F0B92F9927B75182
:100EF000B0F0E1F0660F771F881F991F1AF0BA95BE
:100F0000C9F714C0B13091F00E944A08B1E00895C9
:100F10000C944A08672F782F8827B85F39F0B93FBB
:100F2000CCF3869577956795B395D9F73EF4909570
:100F30008095709561957F4F8F4F9F4F0895E894EE
:100F400009C097FB3EF490958095709561957F4F11
:100F50008F4F9F4F9923A9F0F92F96E9BB279395BF
:100F6000F695879577956795B795F111F8CFFAF4CF
:100F7000BB0F11F460FF1BC06F5F7F4F8F4F9F4F00
:100F800016C0882311F096E911C0772321F09EE85E
:100F9000872F762F05C0662371F096E8862F70E0C4
:100FA00060E02AF09A95660F771F881FDAF7880F9E
:100FB0009695879597F90895990F0008550FAA0BF4
:100FC000E0E8FEEF16161706E807F907C0F012165C
:100FD0001306E407F50798F0621B730B840B950B5F
:100FE00039F40A2661F0232B242B252B21F40895B4
:100FF0000A2609F4A140A6958FEF811D811D089551
:1010000097F99F6780E870E060E008959FEF80ECBB
:10101000089500240A94161617061806090608955E
:1010200000240A9412161306140605060895092EC4
:101030000394000C11F4882352F0BB0F40F4BF2B33
:1010400011F460FF04C06F5F7F4F8F4F9F4F089573
:1010500057FD9058440F551F59F05F3F71F0479569
:10106000880F97FB991F61F09F3F79F0879508954E
:10107000121613061406551FF2CF4695F1DF08C06D
:10108000161617061806991FF1CF8695710561058A
:1010900008940895E894BB2766277727CB0197F932
:1010A00008950E94DC0708F48FEF08950E946908F4
:1010B0000C9417080E94090838F00E94100820F0CC
:1010C000952311F00C9400080C94060811240C943C
:1010D0004B080E94280870F3959FC1F3950F50E0CC
:1010E000551F629FF001729FBB27F00DB11D639FDA
:1010F000AA27F00DB11DAA1F649F6627B00DA11D80
:10110000661F829F2227B00DA11D621F739FB00D25
:10111000A11D621F839FA00D611D221F749F332795
:10112000A00D611D231F849F600D211D822F762F2E
:101130006A2F11249F5750409AF0F1F088234AF00B
:10114000EE0FFF1FBB1F661F771F881F9150504077
:10115000A9F79E3F510580F00C9400080C944B08B1
:101160005F3FE4F3983ED4F3869577956795B795FE
:10117000F795E7959F5FC1F7FE2B880F911D969518
:10118000879597F908950E94DC07880B990B0895BD
:10119000A1E21A2EAA1BBB1BFD010DC0AA1FBB1F7B
:1011A000EE1FFF1FA217B307E407F50720F0A21BED
:1011B000B30BE40BF50B661F771F881F991F1A945A
:1011C00069F760957095809590959B01AC01BD0184
:1011D000CF010895052E97FB1EF400940E9401098B
:1011E00057FD07D00E94C80807FC03D04EF40C94AA
:1011F000010950954095309521953F4F4F4F5F4FD6
:10120000089590958095709561957F4F8F4F9F4F72
:101210000895A29FB001B39FC001A39F700D811DCF
:101220001124911DB29F700D811D1124911D0895EF
:10123000EE0FFF1F0590F491E02D0994F894FFCF75
:10124000FF00000000F6038D00540253026F62732A
:10125000746163756C6F20613A006E616E00696E37
:0C12600066006F766600636D000D0A00EA
:00000001FF
